{
  "contractName": "SolnSquareVerifier",
  "abi": [
    {
      "constant": true,
      "inputs": [
        {
          "name": "interfaceId",
          "type": "bytes4"
        }
      ],
      "name": "supportsInterface",
      "outputs": [
        {
          "name": "",
          "type": "bool"
        }
      ],
      "payable": false,
      "stateMutability": "view",
      "type": "function",
      "signature": "0x01ffc9a7"
    },
    {
      "constant": true,
      "inputs": [
        {
          "name": "tokenId",
          "type": "uint256"
        }
      ],
      "name": "name",
      "outputs": [
        {
          "name": "",
          "type": "string"
        }
      ],
      "payable": false,
      "stateMutability": "view",
      "type": "function",
      "signature": "0x00ad800c"
    },
    {
      "constant": true,
      "inputs": [
        {
          "name": "tokenId",
          "type": "uint256"
        },
        {
          "name": "tokenId",
          "type": "uint256"
        }
      ],
      "name": "getApproved",
      "outputs": [
        {
          "name": "",
          "type": "address"
        }
      ],
      "payable": false,
      "stateMutability": "view",
      "type": "function",
      "signature": "0x5b8ef74e"
    },
    {
      "constant": false,
      "inputs": [
        {
          "name": "to",
          "type": "address"
        },
        {
          "name": "tokenId",
          "type": "uint256"
        }
      ],
      "name": "approve",
      "outputs": [
        {
          "name": "",
          "type": "string"
        }
      ],
      "payable": false,
      "stateMutability": "nonpayable",
      "type": "function",
      "signature": "0x095ea7b3"
    },
    {
      "constant": false,
      "inputs": [
        {
          "name": "Pause",
          "type": "bool"
        }
      ],
      "name": "setPaused",
      "outputs": [],
      "payable": false,
      "stateMutability": "nonpayable",
      "type": "function",
      "signature": "0x16c38b3c"
    },
    {
      "constant": true,
      "inputs": [],
      "name": "totalSupply",
      "outputs": [
        {
          "name": "",
          "type": "uint256"
        }
      ],
      "payable": false,
      "stateMutability": "view",
      "type": "function",
      "signature": "0x18160ddd"
    },
    {
      "constant": false,
      "inputs": [
        {
          "name": "from",
          "type": "address"
        },
        {
          "name": "to",
          "type": "address"
        },
        {
          "name": "tokenId",
          "type": "uint256"
        }
      ],
      "name": "transferFrom",
      "outputs": [
        {
          "name": "",
          "type": "uint256"
        }
      ],
      "payable": false,
      "stateMutability": "nonpayable",
      "type": "function",
      "signature": "0x23b872dd"
    },
    {
      "constant": false,
      "inputs": [
        {
          "name": "_myid",
          "type": "bytes32"
        },
        {
          "name": "_result",
          "type": "string"
        },
        {
          "name": "tokenId",
          "type": "uint256"
        }
      ],
      "name": "__callback",
      "outputs": [],
      "payable": false,
      "stateMutability": "nonpayable",
      "type": "function",
      "signature": "0xd9c97699"
    },
    {
      "constant": true,
      "inputs": [
        {
          "name": "owner",
          "type": "address"
        },
        {
          "name": "index",
          "type": "uint256"
        }
      ],
      "name": "tokenOfOwnerByIndex",
      "outputs": [
        {
          "name": "",
          "type": "uint256"
        }
      ],
      "payable": false,
      "stateMutability": "view",
      "type": "function",
      "signature": "0x2f745c59"
    },
    {
      "constant": false,
      "inputs": [
        {
          "name": "_myid",
          "type": "bytes32"
        },
        {
          "name": "_result",
          "type": "string"
        },
        {
          "name": "_proof",
          "type": "bytes"
        }
      ],
      "name": "__callback",
      "outputs": [
        {
          "name": "",
          "type": "uint256"
        }
      ],
      "payable": false,
      "stateMutability": "nonpayable",
      "type": "function",
      "signature": "0x38bbfa50"
    },
    {
      "constant": false,
      "inputs": [
        {
          "name": "from",
          "type": "address"
        },
        {
          "name": "to",
          "type": "address"
        },
        {
          "name": "tokenId",
          "type": "uint256"
        }
      ],
      "name": "safeTransferFrom",
      "outputs": [],
      "payable": false,
      "stateMutability": "nonpayable",
      "type": "function",
      "signature": "0x42842e0e"
    },
    {
      "constant": true,
      "inputs": [
        {
          "name": "index",
          "type": "uint256"
        },
        {
          "name": "to",
          "type": "address"
        },
        {
          "name": "tokenId",
          "type": "uint256"
        }
      ],
      "name": "tokenByIndex",
      "outputs": [
        {
          "name": "",
          "type": "uint256"
        }
      ],
      "payable": false,
      "stateMutability": "view",
      "type": "function",
      "signature": "0xbbb012f2"
    },
    {
      "constant": true,
      "inputs": [
        {
          "name": "tokenId",
          "type": "uint256"
        }
      ],
      "name": "ownerOf",
      "outputs": [
        {
          "name": "",
          "type": "address"
        }
      ],
      "payable": false,
      "stateMutability": "view",
      "type": "function",
      "signature": "0x6352211e"
    },
    {
      "constant": true,
      "inputs": [
        {
          "name": "owner",
          "type": "address"
        }
      ],
      "name": "balanceOf",
      "outputs": [
        {
          "name": "",
          "type": "uint256"
        }
      ],
      "payable": false,
      "stateMutability": "view",
      "type": "function",
      "signature": "0x70a08231"
    },
    {
      "constant": true,
      "inputs": [
        {
          "name": "owner",
          "type": "address"
        }
      ],
      "name": "getOwner",
      "outputs": [
        {
          "name": "",
          "type": "address"
        }
      ],
      "payable": false,
      "stateMutability": "view",
      "type": "function",
      "signature": "0xfa544161"
    },
    {
      "constant": true,
      "inputs": [],
      "name": "VerifierContract",
      "outputs": [
        {
          "name": "",
          "type": "address"
        }
      ],
      "payable": false,
      "stateMutability": "view",
      "type": "function",
      "signature": "0x8f205f4d"
    },
    {
      "constant": true,
      "inputs": [],
      "name": "symbol",
      "outputs": [
        {
          "name": "",
          "type": "string"
        }
      ],
      "payable": false,
      "stateMutability": "view",
      "type": "function",
      "signature": "0x95d89b41"
    },
    {
      "constant": false,
      "inputs": [
        {
          "name": "to",
          "type": "address"
        },
        {
          "name": "approved",
          "type": "bool"
        }
      ],
      "name": "setApprovalForAll",
      "outputs": [],
      "payable": false,
      "stateMutability": "nonpayable",
      "type": "function",
      "signature": "0xa22cb465"
    },
    {
      "constant": false,
      "inputs": [
        {
          "name": "from",
          "type": "address"
        },
        {
          "name": "to",
          "type": "address"
        },
        {
          "name": "tokenId",
          "type": "uint256"
        },
        {
          "name": "_data",
          "type": "bytes"
        }
      ],
      "name": "safeTransferFrom",
      "outputs": [],
      "payable": false,
      "stateMutability": "nonpayable",
      "type": "function",
      "signature": "0xb88d4fde"
    },
    {
      "constant": true,
      "inputs": [
        {
          "name": "tokenId",
          "type": "uint256"
        }
      ],
      "name": "tokenURI",
      "outputs": [
        {
          "name": "",
          "type": "string"
        }
      ],
      "payable": false,
      "stateMutability": "view",
      "type": "function",
      "signature": "0xc87b56dd"
    },
    {
      "constant": false,
      "inputs": [
        {
          "name": "to",
          "type": "address"
        },
        {
          "name": "tokenId",
          "type": "uint256"
        },
        {
          "name": "tokenURI",
          "type": "string"
        }
      ],
      "name": "mint",
      "outputs": [
        {
          "name": "",
          "type": "uint256"
        }
      ],
      "payable": false,
      "stateMutability": "nonpayable",
      "type": "function",
      "signature": "0xd3fc9864"
    },
    {
      "constant": true,
      "inputs": [],
      "name": "baseTokenURI",
      "outputs": [
        {
          "name": "",
          "type": "string"
        }
      ],
      "payable": false,
      "stateMutability": "view",
      "type": "function",
      "signature": "0xd547cfb7"
    },
    {
      "constant": true,
      "inputs": [
        {
          "name": "owner",
          "type": "address"
        },
        {
          "name": "operator",
          "type": "address"
        }
      ],
      "name": "isApprovedForAll",
      "outputs": [
        {
          "name": "",
          "type": "bool"
        }
      ],
      "payable": false,
      "stateMutability": "view",
      "type": "function",
      "signature": "0xe985e9c5"
    },
    {
      "constant": false,
      "inputs": [
        {
          "name": "newOwner",
          "type": "address"
        }
      ],
      "name": "transferOwnership",
      "outputs": [],
      "payable": false,
      "stateMutability": "nonpayable",
      "type": "function",
      "signature": "0xf2fde38b"
    },
    {
      "inputs": [
        {
          "name": "VerifierContractAddress",
          "type": "address"
        }
      ],
      "payable": false,
      "stateMutability": "nonpayable",
      "type": "constructor",
      "signature": "constructor"
    },
    {
      "anonymous": false,
      "inputs": [
        {
          "indexed": false,
          "name": "index",
          "type": "uint256"
        },
        {
          "indexed": false,
          "name": "Address",
          "type": "address"
        }
      ],
      "name": "solotionAdded",
      "type": "event",
      "signature": "0xc1672a389b5f2ceef648f5d60ecf33bf95a9f9974459ae1bf99bd1ee159ae91a"
    },
    {
      "anonymous": false,
      "inputs": [
        {
          "indexed": true,
          "name": "from",
          "type": "address"
        },
        {
          "indexed": true,
          "name": "to",
          "type": "address"
        },
        {
          "indexed": true,
          "name": "tokenId",
          "type": "uint256"
        }
      ],
      "name": "Transfer",
      "type": "event",
      "signature": "0xddf252ad1be2c89b69c2b068fc378daa952ba7f163c4a11628f55a4df523b3ef"
    },
    {
      "anonymous": false,
      "inputs": [
        {
          "indexed": true,
          "name": "owner",
          "type": "address"
        },
        {
          "indexed": true,
          "name": "approved",
          "type": "address"
        },
        {
          "indexed": true,
          "name": "tokenId",
          "type": "uint256"
        }
      ],
      "name": "Approval",
      "type": "event",
      "signature": "0x8c5be1e5ebec7d5bd14f71427d1e84f3dd0314c0f7b2291e5b200ac8c7c3b925"
    },
    {
      "anonymous": false,
      "inputs": [
        {
          "indexed": true,
          "name": "owner",
          "type": "address"
        },
        {
          "indexed": true,
          "name": "operator",
          "type": "address"
        },
        {
          "indexed": false,
          "name": "approved",
          "type": "bool"
        }
      ],
      "name": "ApprovalForAll",
      "type": "event",
      "signature": "0x17307eab39ab6107e8899845ad3d59bd9653f200f220920489ca2b5937696c31"
    },
    {
      "anonymous": false,
      "inputs": [
        {
          "indexed": false,
          "name": "caller",
          "type": "address"
        }
      ],
      "name": "Paused",
      "type": "event",
      "signature": "0x62e78cea01bee320cd4e420270b5ea74000d11b0c9f74754ebdbfc544b05a258"
    },
    {
      "anonymous": false,
      "inputs": [
        {
          "indexed": false,
          "name": "caller",
          "type": "address"
        }
      ],
      "name": "Unpaused",
      "type": "event",
      "signature": "0x5db9ee0a495bf2e6ff9c91a7834c1ba4fdd244a5e8aa4e537bd38aeae4b073aa"
    },
    {
      "anonymous": false,
      "inputs": [
        {
          "indexed": false,
          "name": "newOwner",
          "type": "address"
        }
      ],
      "name": "OwnerChanged",
      "type": "event",
      "signature": "0xa2ea9883a321a3e97b8266c2b078bfeec6d50c711ed71f874a90d500ae2eaf36"
    },
    {
      "constant": false,
      "inputs": [
        {
          "name": "to",
          "type": "address"
        },
        {
          "name": "tokenID",
          "type": "uint256"
        },
        {
          "name": "a",
          "type": "uint256[2]"
        },
        {
          "name": "a_p",
          "type": "uint256[2]"
        },
        {
          "name": "b",
          "type": "uint256[2][2]"
        },
        {
          "name": "b_p",
          "type": "uint256[2]"
        },
        {
          "name": "c",
          "type": "uint256[2]"
        },
        {
          "name": "c_p",
          "type": "uint256[2]"
        },
        {
          "name": "h",
          "type": "uint256[2]"
        },
        {
          "name": "k",
          "type": "uint256[2]"
        },
        {
          "name": "input",
          "type": "uint256[2]"
        }
      ],
      "name": "mintNFT",
      "outputs": [
        {
          "name": "",
          "type": "uint256"
        }
      ],
      "payable": false,
      "stateMutability": "nonpayable",
      "type": "function",
      "signature": "0x36d47d95"
    }
  ],
  "bytecode": "0x60806040523480156200001157600080fd5b5060405160208062004081833981018060405260208110156200003357600080fd5b81019080805190602001909291905050506040805190810160405280600881526020017f63617073746f6e650000000000000000000000000000000000000000000000008152506040805190810160405280600481526020017f5544435000000000000000000000000000000000000000000000000000000000815250606060405190810160405280603f81526020017f68747470733a2f2f73332d75732d776573742d322e616d617a6f6e6177732e6381526020017f6f6d2f756461636974792d626c6f636b636861696e2f63617073746f6e652f00815250336000806101000a81548173ffffffffffffffffffffffffffffffffffffffff021916908373ffffffffffffffffffffffffffffffffffffffff1602179055507fa2ea9883a321a3e97b8266c2b078bfeec6d50c711ed71f874a90d500ae2eaf366000809054906101000a900473ffffffffffffffffffffffffffffffffffffffff16604051808273ffffffffffffffffffffffffffffffffffffffff1673ffffffffffffffffffffffffffffffffffffffff16815260200191505060405180910390a160008060146101000a81548160ff021916908315150217905550620002286301ffc9a77c01000000000000000000000000000000000000000000000000000000000262000375640100000000026401000000009004565b620002656380ac58cd7c01000000000000000000000000000000000000000000000000000000000262000375640100000000026401000000009004565b620002a263780e9d637c01000000000000000000000000000000000000000000000000000000000262000375640100000000026401000000009004565b8260109080519060200190620002ba92919062000433565b508160119080519060200190620002d392919062000433565b508060129080519060200190620002ec92919062000433565b506200032a635b5e139f7c01000000000000000000000000000000000000000000000000000000000262000375640100000000026401000000009004565b50505080601560006101000a81548173ffffffffffffffffffffffffffffffffffffffff021916908373ffffffffffffffffffffffffffffffffffffffff16021790555050620004e2565b63ffffffff7c010000000000000000000000000000000000000000000000000000000002817bffffffffffffffffffffffffffffffffffffffffffffffffffffffff191614151515620003c757600080fd5b6001806000837bffffffffffffffffffffffffffffffffffffffffffffffffffffffff19167bffffffffffffffffffffffffffffffffffffffffffffffffffffffff1916815260200190815260200160002060006101000a81548160ff02191690831515021790555050565b828054600181600116156101000203166002900490600052602060002090601f016020900481019282601f106200047657805160ff1916838001178555620004a7565b82800160010185558215620004a7579182015b82811115620004a657825182559160200191906001019062000489565b5b509050620004b69190620004ba565b5090565b620004df91905b80821115620004db576000816000905550600101620004c1565b5090565b90565b613b8f80620004f26000396000f3fe608060405260043610610149576000357c0100000000000000000000000000000000000000000000000000000000900463ffffffff16806301ffc9a71461014e57806306fdde03146101c0578063081812fc14610250578063095ea7b3146102cb57806316c38b3c1461032657806318160ddd1461036357806323b872dd1461038e57806327dc297e146104095780632f745c59146104db57806336d47d951461054a57806338bbfa501461083b57806342842e0e146109a45780634f6ccce714610a1f5780636352211e14610a6e57806370a0823114610ae9578063893d20e814610b4e5780638f205f4d14610ba557806395d89b4114610bfc578063a22cb46514610c8c578063b88d4fde14610ce9578063c87b56dd14610dfb578063d3fc986414610eaf578063d547cfb714610fb5578063e985e9c514611045578063f2fde38b146110ce575b600080fd5b34801561015a57600080fd5b506101a66004803603602081101561017157600080fd5b8101908080357bffffffffffffffffffffffffffffffffffffffffffffffffffffffff1916906020019092919050505061111f565b604051808215151515815260200191505060405180910390f35b3480156101cc57600080fd5b506101d5611187565b6040518080602001828103825283818151815260200191508051906020019080838360005b838110156102155780820151818401526020810190506101fa565b50505050905090810190601f1680156102425780820380516001836020036101000a031916815260200191505b509250505060405180910390f35b34801561025c57600080fd5b506102896004803603602081101561027357600080fd5b8101908080359060200190929190505050611229565b604051808273ffffffffffffffffffffffffffffffffffffffff1673ffffffffffffffffffffffffffffffffffffffff16815260200191505060405180910390f35b3480156102d757600080fd5b50610324600480360360408110156102ee57600080fd5b81019080803573ffffffffffffffffffffffffffffffffffffffff16906020019092919080359060200190929190505050611266565b005b34801561033257600080fd5b506103616004803603602081101561034957600080fd5b81019080803515159060200190929190505050611561565b005b34801561036f57600080fd5b50610378611723565b6040518082815260200191505060405180910390f35b34801561039a57600080fd5b50610407600480360360608110156103b157600080fd5b81019080803573ffffffffffffffffffffffffffffffffffffffff169060200190929190803573ffffffffffffffffffffffffffffffffffffffff16906020019092919080359060200190929190505050611730565b005b34801561041557600080fd5b506104d96004803603604081101561042c57600080fd5b81019080803590602001909291908035906020019064010000000081111561045357600080fd5b82018360208201111561046557600080fd5b8035906020019184600183028401116401000000008311171561048757600080fd5b91908080601f016020809104026020016040519081016040528093929190818152602001838380828437600081840152601f19601f820116905080830192505050505050509192919290505050611755565b005b3480156104e757600080fd5b50610534600480360360408110156104fe57600080fd5b81019080803573ffffffffffffffffffffffffffffffffffffffff16906020019092919080359060200190929190505050611798565b6040518082815260200191505060405180910390f35b34801561055657600080fd5b5061082560048036036102c081101561056e57600080fd5b81019080803573ffffffffffffffffffffffffffffffffffffffff1690602001909291908035906020019092919080604001906002806020026040519081016040528092919082600260200280828437600081840152601f19601f820116905080830192505050505050919291929080604001906002806020026040519081016040528092919082600260200280828437600081840152601f19601f82011690508083019250505050505091929192908060800190600280602002604051908101604052809291906000905b8282101561068e578382604002016002806020026040519081016040528092919082600260200280828437600081840152601f19601f8201169050808301925050505050508152602001906001019061063a565b50505050919291929080604001906002806020026040519081016040528092919082600260200280828437600081840152601f19601f820116905080830192505050505050919291929080604001906002806020026040519081016040528092919082600260200280828437600081840152601f19601f820116905080830192505050505050919291929080604001906002806020026040519081016040528092919082600260200280828437600081840152601f19601f820116905080830192505050505050919291929080604001906002806020026040519081016040528092919082600260200280828437600081840152601f19601f820116905080830192505050505050919291929080604001906002806020026040519081016040528092919082600260200280828437600081840152601f19601f820116905080830192505050505050919291929080604001906002806020026040519081016040528092919082600260200280828437600081840152601f19601f820116905080830192505050505050919291929050505061180f565b6040518082815260200191505060405180910390f35b34801561084757600080fd5b506109a26004803603606081101561085e57600080fd5b81019080803590602001909291908035906020019064010000000081111561088557600080fd5b82018360208201111561089757600080fd5b803590602001918460018302840111640100000000831117156108b957600080fd5b91908080601f016020809104026020016040519081016040528093929190818152602001838380828437600081840152601f19601f8201169050808301925050505050505091929192908035906020019064010000000081111561091c57600080fd5b82018360208201111561092e57600080fd5b8035906020019184600183028401116401000000008311171561095057600080fd5b91908080601f016020809104026020016040519081016040528093929190818152602001838380828437600081840152601f19601f820116905080830192505050505050509192919290505050611c67565b005b3480156109b057600080fd5b50610a1d600480360360608110156109c757600080fd5b81019080803573ffffffffffffffffffffffffffffffffffffffff169060200190929190803573ffffffffffffffffffffffffffffffffffffffff16906020019092919080359060200190929190505050611c6c565b005b348015610a2b57600080fd5b50610a5860048036036020811015610a4257600080fd5b8101908080359060200190929190505050611c8d565b6040518082815260200191505060405180910390f35b348015610a7a57600080fd5b50610aa760048036036020811015610a9157600080fd5b8101908080359060200190929190505050611cc5565b604051808273ffffffffffffffffffffffffffffffffffffffff1673ffffffffffffffffffffffffffffffffffffffff16815260200191505060405180910390f35b348015610af557600080fd5b50610b3860048036036020811015610b0c57600080fd5b81019080803573ffffffffffffffffffffffffffffffffffffffff169060200190929190505050611d02565b6040518082815260200191505060405180910390f35b348015610b5a57600080fd5b50610b63611d52565b604051808273ffffffffffffffffffffffffffffffffffffffff1673ffffffffffffffffffffffffffffffffffffffff16815260200191505060405180910390f35b348015610bb157600080fd5b50610bba611d7b565b604051808273ffffffffffffffffffffffffffffffffffffffff1673ffffffffffffffffffffffffffffffffffffffff16815260200191505060405180910390f35b348015610c0857600080fd5b50610c11611da1565b6040518080602001828103825283818151815260200191508051906020019080838360005b83811015610c51578082015181840152602081019050610c36565b50505050905090810190601f168015610c7e5780820380516001836020036101000a031916815260200191505b509250505060405180910390f35b348015610c9857600080fd5b50610ce760048036036040811015610caf57600080fd5b81019080803573ffffffffffffffffffffffffffffffffffffffff169060200190929190803515159060200190929190505050611e43565b005b348015610cf557600080fd5b50610df960048036036080811015610d0c57600080fd5b81019080803573ffffffffffffffffffffffffffffffffffffffff169060200190929190803573ffffffffffffffffffffffffffffffffffffffff1690602001909291908035906020019092919080359060200190640100000000811115610d7357600080fd5b820183602082011115610d8557600080fd5b80359060200191846001830284011164010000000083111715610da757600080fd5b91908080601f016020809104026020016040519081016040528093929190818152602001838380828437600081840152601f19601f820116905080830192505050505050509192919290505050611f7f565b005b348015610e0757600080fd5b50610e3460048036036020811015610e1e57600080fd5b8101908080359060200190929190505050611fa7565b6040518080602001828103825283818151815260200191508051906020019080838360005b83811015610e74578082015181840152602081019050610e59565b50505050905090810190601f168015610ea15780820380516001836020036101000a031916815260200191505b509250505060405180910390f35b348015610ebb57600080fd5b50610f9f60048036036060811015610ed257600080fd5b81019080803573ffffffffffffffffffffffffffffffffffffffff1690602001909291908035906020019092919080359060200190640100000000811115610f1957600080fd5b820183602082011115610f2b57600080fd5b80359060200191846001830284011164010000000083111715610f4d57600080fd5b91908080601f016020809104026020016040519081016040528093929190818152602001838380828437600081840152601f19601f820116905080830192505050505050509192919290505050612070565b6040518082815260200191505060405180910390f35b348015610fc157600080fd5b50610fca61215b565b6040518080602001828103825283818151815260200191508051906020019080838360005b8381101561100a578082015181840152602081019050610fef565b50505050905090810190601f1680156110375780820380516001836020036101000a031916815260200191505b509250505060405180910390f35b34801561105157600080fd5b506110b46004803603604081101561106857600080fd5b81019080803573ffffffffffffffffffffffffffffffffffffffff169060200190929190803573ffffffffffffffffffffffffffffffffffffffff1690602001909291905050506121fd565b604051808215151515815260200191505060405180910390f35b3480156110da57600080fd5b5061111d600480360360208110156110f157600080fd5b81019080803573ffffffffffffffffffffffffffffffffffffffff169060200190929190505050612291565b005b600060016000837bffffffffffffffffffffffffffffffffffffffffffffffffffffffff19167bffffffffffffffffffffffffffffffffffffffffffffffffffffffff1916815260200190815260200160002060009054906101000a900460ff169050919050565b606060108054600181600116156101000203166002900480601f01602080910402602001604051908101604052809291908181526020018280546001816001161561010002031660029004801561121f5780601f106111f45761010080835404028352916020019161121f565b820191906000526020600020905b81548152906001019060200180831161120257829003601f168201915b5050505050905090565b60006003600083815260200190815260200160002060009054906101000a900473ffffffffffffffffffffffffffffffffffffffff169050919050565b6002600082815260200190815260200160002060009054906101000a900473ffffffffffffffffffffffffffffffffffffffff1673ffffffffffffffffffffffffffffffffffffffff168273ffffffffffffffffffffffffffffffffffffffff1614151515611363576040517f08c379a000000000000000000000000000000000000000000000000000000000815260040180806020018281038252602b8152602001807f7468697320746f6b656e20697320616c7265616479206f776e6564206279207481526020017f686973206164647265737300000000000000000000000000000000000000000081525060400191505060405180910390fd5b6002600082815260200190815260200160002060009054906101000a900473ffffffffffffffffffffffffffffffffffffffff1673ffffffffffffffffffffffffffffffffffffffff163373ffffffffffffffffffffffffffffffffffffffff16148061140957506114086002600083815260200190815260200160002060009054906101000a900473ffffffffffffffffffffffffffffffffffffffff16336121fd565b5b151561147d576040517f08c379a000000000000000000000000000000000000000000000000000000000815260040180806020018281038252601c8152602001807f796f752063616e74207472616e73666572207468697320746f6b656e0000000081525060200191505060405180910390fd5b816003600083815260200190815260200160002060006101000a81548173ffffffffffffffffffffffffffffffffffffffff021916908373ffffffffffffffffffffffffffffffffffffffff160217905550808273ffffffffffffffffffffffffffffffffffffffff166002600084815260200190815260200160002060009054906101000a900473ffffffffffffffffffffffffffffffffffffffff1673ffffffffffffffffffffffffffffffffffffffff167f8c5be1e5ebec7d5bd14f71427d1e84f3dd0314c0f7b2291e5b200ac8c7c3b92560405160405180910390a45050565b6000809054906101000a900473ffffffffffffffffffffffffffffffffffffffff1673ffffffffffffffffffffffffffffffffffffffff163373ffffffffffffffffffffffffffffffffffffffff16141515611625576040517f08c379a000000000000000000000000000000000000000000000000000000000815260040180806020018281038252601c8152602001807f43616c6c6572206973206e6f7420636f6e7472616374206f776e65720000000081525060200191505060405180910390fd5b80600060146101000a81548160ff021916908315150217905550600060149054906101000a900460ff16156116bc577f62e78cea01bee320cd4e420270b5ea74000d11b0c9f74754ebdbfc544b05a25833604051808273ffffffffffffffffffffffffffffffffffffffff1673ffffffffffffffffffffffffffffffffffffffff16815260200191505060405180910390a1611720565b7f5db9ee0a495bf2e6ff9c91a7834c1ba4fdd244a5e8aa4e537bd38aeae4b073aa33604051808273ffffffffffffffffffffffffffffffffffffffff1673ffffffffffffffffffffffffffffffffffffffff16815260200191505060405180910390a15b50565b6000600880549050905090565b61173a338261241c565b151561174557600080fd5b6117508383836124b1565b505050565b611794828260006040519080825280601f01601f19166020018201604052801561178e5781602001600182028038833980820191505090505b50611c67565b5050565b60006117a383611d02565b821015156117b057600080fd5b600660008473ffffffffffffffffffffffffffffffffffffffff1673ffffffffffffffffffffffffffffffffffffffff168152602001908152602001600020828154811015156117fc57fe5b9060005260206000200154905092915050565b6000806118238b8b8b8b8b8b8b8b8b6124d5565b9050600073ffffffffffffffffffffffffffffffffffffffff166014600083815260200190815260200160002060010160009054906101000a900473ffffffffffffffffffffffffffffffffffffffff1673ffffffffffffffffffffffffffffffffffffffff161415156118ff576040517f08c379a00000000000000000000000000000000000000000000000000000000081526004018080602001828103825260178152602001807f7265717569726520756e6971756520736f6c7574696f6e00000000000000000081525060200191505060405180910390fd5b601560009054906101000a900473ffffffffffffffffffffffffffffffffffffffff1673ffffffffffffffffffffffffffffffffffffffff1663fe01ff628c8c8c8c8c8c8c8c8c6040518a63ffffffff167c0100000000000000000000000000000000000000000000000000000000028152600401808a600260200280838360005b8381101561199c578082015181840152602081019050611981565b5050505090500189600260200280838360005b838110156119ca5780820151818401526020810190506119af565b505050509050018860026000925b81841015611a1e5782846020020151600260200280838360005b83811015611a0d5780820151818401526020810190506119f2565b5050505090500192600101926119d8565b9250505087600260200280838360005b83811015611a49578082015181840152602081019050611a2e565b5050505090500186600260200280838360005b83811015611a77578082015181840152602081019050611a5c565b5050505090500185600260200280838360005b83811015611aa5578082015181840152602081019050611a8a565b5050505090500184600260200280838360005b83811015611ad3578082015181840152602081019050611ab8565b5050505090500183600260200280838360005b83811015611b01578082015181840152602081019050611ae6565b5050505090500182600260200280838360005b83811015611b2f578082015181840152602081019050611b14565b505050509050019950505050505050505050602060405180830381600087803b158015611b5b57600080fd5b505af1158015611b6f573d6000803e3d6000fd5b505050506040513d6020811015611b8557600080fd5b81019080805190602001909291905050501515611c0a576040517f08c379a000000000000000000000000000000000000000000000000000000000815260040180806020018281038252600c8152602001807f6e6f74207665726966696564000000000000000000000000000000000000000081525060200191505060405180910390fd5b611c158d8d836126d8565b611c558d8d6040805190810160405280600881526020017f546f6b656e555249000000000000000000000000000000000000000000000000815250612070565b9150509b9a5050505050505050505050565b505050565b611c888383836020604051908101604052806000815250611f7f565b505050565b6000611c97611723565b82101515611ca457600080fd5b600882815481101515611cb357fe5b90600052602060002001549050919050565b60006002600083815260200190815260200160002060009054906101000a900473ffffffffffffffffffffffffffffffffffffffff169050919050565b6000611d4b600460008473ffffffffffffffffffffffffffffffffffffffff1673ffffffffffffffffffffffffffffffffffffffff1681526020019081526020016000206127da565b9050919050565b60008060009054906101000a900473ffffffffffffffffffffffffffffffffffffffff16905090565b601560009054906101000a900473ffffffffffffffffffffffffffffffffffffffff1681565b606060118054600181600116156101000203166002900480601f016020809104026020016040519081016040528092919081815260200182805460018160011615610100020316600290048015611e395780601f10611e0e57610100808354040283529160200191611e39565b820191906000526020600020905b815481529060010190602001808311611e1c57829003601f168201915b5050505050905090565b3373ffffffffffffffffffffffffffffffffffffffff168273ffffffffffffffffffffffffffffffffffffffff1614151515611e7e57600080fd5b80600560003373ffffffffffffffffffffffffffffffffffffffff1673ffffffffffffffffffffffffffffffffffffffff16815260200190815260200160002060008473ffffffffffffffffffffffffffffffffffffffff1673ffffffffffffffffffffffffffffffffffffffff16815260200190815260200160002060006101000a81548160ff0219169083151502179055508173ffffffffffffffffffffffffffffffffffffffff163373ffffffffffffffffffffffffffffffffffffffff167f17307eab39ab6107e8899845ad3d59bd9653f200f220920489ca2b5937696c3183604051808215151515815260200191505060405180910390a35050565b611f8a848484611730565b611f96848484846127e8565b1515611fa157600080fd5b50505050565b6060611fb282612a0b565b1515611fbd57600080fd5b601360008381526020019081526020016000208054600181600116156101000203166002900480601f0160208091040260200160405190810160405280929190818152602001828054600181600116156101000203166002900480156120645780601f1061203957610100808354040283529160200191612064565b820191906000526020600020905b81548152906001019060200180831161204757829003601f168201915b50505050509050919050565b60008060009054906101000a900473ffffffffffffffffffffffffffffffffffffffff1673ffffffffffffffffffffffffffffffffffffffff163373ffffffffffffffffffffffffffffffffffffffff16141515612136576040517f08c379a000000000000000000000000000000000000000000000000000000000815260040180806020018281038252601c8152602001807f43616c6c6572206973206e6f7420636f6e7472616374206f776e65720000000081525060200191505060405180910390fd5b6121408484612a7d565b61214983612a9e565b61215284611d02565b90509392505050565b606060128054600181600116156101000203166002900480601f0160208091040260200160405190810160405280929190818152602001828054600181600116156101000203166002900480156121f35780601f106121c8576101008083540402835291602001916121f3565b820191906000526020600020905b8154815290600101906020018083116121d657829003601f168201915b5050505050905090565b6000600560008473ffffffffffffffffffffffffffffffffffffffff1673ffffffffffffffffffffffffffffffffffffffff16815260200190815260200160002060008373ffffffffffffffffffffffffffffffffffffffff1673ffffffffffffffffffffffffffffffffffffffff16815260200190815260200160002060009054906101000a900460ff16905092915050565b6000809054906101000a900473ffffffffffffffffffffffffffffffffffffffff1673ffffffffffffffffffffffffffffffffffffffff163373ffffffffffffffffffffffffffffffffffffffff16141515612355576040517f08c379a000000000000000000000000000000000000000000000000000000000815260040180806020018281038252601c8152602001807f43616c6c6572206973206e6f7420636f6e7472616374206f776e65720000000081525060200191505060405180910390fd5b806000806101000a81548173ffffffffffffffffffffffffffffffffffffffff021916908373ffffffffffffffffffffffffffffffffffffffff1602179055507fa2ea9883a321a3e97b8266c2b078bfeec6d50c711ed71f874a90d500ae2eaf366000809054906101000a900473ffffffffffffffffffffffffffffffffffffffff16604051808273ffffffffffffffffffffffffffffffffffffffff1673ffffffffffffffffffffffffffffffffffffffff16815260200191505060405180910390a150565b60008061242883611cc5565b90508073ffffffffffffffffffffffffffffffffffffffff168473ffffffffffffffffffffffffffffffffffffffff16148061249757508373ffffffffffffffffffffffffffffffffffffffff1661247f84611229565b73ffffffffffffffffffffffffffffffffffffffff16145b806124a857506124a781856121fd565b5b91505092915050565b6124bc838383612bf1565b6124c68382612ed6565b6124d0828261307a565b505050565b6000898989898989898989604051602001808a600260200280838360005b8381101561250e5780820151818401526020810190506124f3565b5050505090500189600260200280838360005b8381101561253c578082015181840152602081019050612521565b505050509050018860026000925b818410156125905782846020020151600260200280838360005b8381101561257f578082015181840152602081019050612564565b50505050905001926001019261254a565b9250505087600260200280838360005b838110156125bb5780820151818401526020810190506125a0565b5050505090500186600260200280838360005b838110156125e95780820151818401526020810190506125ce565b5050505090500185600260200280838360005b838110156126175780820151818401526020810190506125fc565b5050505090500184600260200280838360005b8381101561264557808201518184015260208101905061262a565b5050505090500183600260200280838360005b83811015612673578082015181840152602081019050612658565b5050505090500182600260200280838360005b838110156126a1578082015181840152602081019050612686565b5050505090500199505050505050505050506040516020818303038152906040528051906020012090509998505050505050505050565b60408051908101604052808381526020018473ffffffffffffffffffffffffffffffffffffffff16815250601460008381526020019081526020016000206000820151816000015560208201518160010160006101000a81548173ffffffffffffffffffffffffffffffffffffffff021916908373ffffffffffffffffffffffffffffffffffffffff1602179055509050507fc1672a389b5f2ceef648f5d60ecf33bf95a9f9974459ae1bf99bd1ee159ae91a8284604051808381526020018273ffffffffffffffffffffffffffffffffffffffff1673ffffffffffffffffffffffffffffffffffffffff1681526020019250505060405180910390a1505050565b600081600001549050919050565b60006128098473ffffffffffffffffffffffffffffffffffffffff16613141565b15156128185760019050612a03565b60008473ffffffffffffffffffffffffffffffffffffffff1663150b7a02338887876040518563ffffffff167c0100000000000000000000000000000000000000000000000000000000028152600401808573ffffffffffffffffffffffffffffffffffffffff1673ffffffffffffffffffffffffffffffffffffffff1681526020018473ffffffffffffffffffffffffffffffffffffffff1673ffffffffffffffffffffffffffffffffffffffff16815260200183815260200180602001828103825283818151815260200191508051906020019080838360005b8381101561290f5780820151818401526020810190506128f4565b50505050905090810190601f16801561293c5780820380516001836020036101000a031916815260200191505b5095505050505050602060405180830381600087803b15801561295e57600080fd5b505af1158015612972573d6000803e3d6000fd5b505050506040513d602081101561298857600080fd5b8101908080519060200190929190505050905063150b7a027c0100000000000000000000000000000000000000000000000000000000027bffffffffffffffffffffffffffffffffffffffffffffffffffffffff1916817bffffffffffffffffffffffffffffffffffffffffffffffffffffffff1916149150505b949350505050565b6000806002600084815260200190815260200160002060009054906101000a900473ffffffffffffffffffffffffffffffffffffffff169050600073ffffffffffffffffffffffffffffffffffffffff168173ffffffffffffffffffffffffffffffffffffffff161415915050919050565b612a878282613154565b612a91828261307a565b612a9a81613370565b5050565b612aa781612a0b565b1515612b1b576040517f08c379a00000000000000000000000000000000000000000000000000000000081526004018080602001828103825260138152602001807f746f6b656e20646f206e6f74206578697374730000000000000000000000000081525060200191505060405180910390fd5b612bc760128054600181600116156101000203166002900480601f016020809104026020016040519081016040528092919081815260200182805460018160011615610100020316600290048015612bb45780601f10612b8957610100808354040283529160200191612bb4565b820191906000526020600020905b815481529060010190602001808311612b9757829003601f168201915b5050505050612bc2836133bc565b613515565b601360008381526020019081526020016000209080519060200190612bed929190613a92565b5050565b612bfa81611cc5565b73ffffffffffffffffffffffffffffffffffffffff168373ffffffffffffffffffffffffffffffffffffffff16141515612cc2576040517f08c379a00000000000000000000000000000000000000000000000000000000081526004018080602001828103825260278152602001807f74686520676976656e206164647265737320646f206e6f74206f776e6520746881526020017f6520746f6b656e0000000000000000000000000000000000000000000000000081525060400191505060405180910390fd5b600073ffffffffffffffffffffffffffffffffffffffff168273ffffffffffffffffffffffffffffffffffffffff1614151515612d8d576040517f08c379a00000000000000000000000000000000000000000000000000000000081526004018080602001828103825260238152602001807f6e65656420612076616c6964206164647265737320746f207472616e7366657281526020017f20746f000000000000000000000000000000000000000000000000000000000081525060400191505060405180910390fd5b612d968161355c565b816002600083815260200190815260200160002060006101000a81548173ffffffffffffffffffffffffffffffffffffffff021916908373ffffffffffffffffffffffffffffffffffffffff160217905550612e2f600460008573ffffffffffffffffffffffffffffffffffffffff1673ffffffffffffffffffffffffffffffffffffffff16815260200190815260200160002061361c565b612e76600460008473ffffffffffffffffffffffffffffffffffffffff1673ffffffffffffffffffffffffffffffffffffffff16815260200190815260200160002061363f565b808273ffffffffffffffffffffffffffffffffffffffff168473ffffffffffffffffffffffffffffffffffffffff167fddf252ad1be2c89b69c2b068fc378daa952ba7f163c4a11628f55a4df523b3ef60405160405180910390a4505050565b6000612f2e6001600660008673ffffffffffffffffffffffffffffffffffffffff1673ffffffffffffffffffffffffffffffffffffffff1681526020019081526020016000208054905061365590919063ffffffff16565b90506000600760008481526020019081526020016000205490508181141515613021576000600660008673ffffffffffffffffffffffffffffffffffffffff1673ffffffffffffffffffffffffffffffffffffffff16815260200190815260200160002083815481101515612f9f57fe5b9060005260206000200154905080600660008773ffffffffffffffffffffffffffffffffffffffff1673ffffffffffffffffffffffffffffffffffffffff16815260200190815260200160002083815481101515612ff957fe5b9060005260206000200181905550816007600083815260200190815260200160002081905550505b600660008573ffffffffffffffffffffffffffffffffffffffff1673ffffffffffffffffffffffffffffffffffffffff1681526020019081526020016000208054809190600190036130739190613b12565b5050505050565b600660008373ffffffffffffffffffffffffffffffffffffffff1673ffffffffffffffffffffffffffffffffffffffff168152602001908152602001600020805490506007600083815260200190815260200160002081905550600660008373ffffffffffffffffffffffffffffffffffffffff1673ffffffffffffffffffffffffffffffffffffffff1681526020019081526020016000208190806001815401808255809150509060018203906000526020600020016000909192909190915055505050565b600080823b905060008111915050919050565b600073ffffffffffffffffffffffffffffffffffffffff168273ffffffffffffffffffffffffffffffffffffffff16141515156131f9576040517f08c379a000000000000000000000000000000000000000000000000000000000815260040180806020018281038252600f8152602001807f696e76616c69642061646472657373000000000000000000000000000000000081525060200191505060405180910390fd5b61320281612a0b565b151515613277576040517f08c379a000000000000000000000000000000000000000000000000000000000815260040180806020018281038252600f8152602001807f746f6b656e20646f20657869737473000000000000000000000000000000000081525060200191505060405180910390fd5b816002600083815260200190815260200160002060006101000a81548173ffffffffffffffffffffffffffffffffffffffff021916908373ffffffffffffffffffffffffffffffffffffffff160217905550613310600460008473ffffffffffffffffffffffffffffffffffffffff1673ffffffffffffffffffffffffffffffffffffffff16815260200190815260200160002061363f565b808273ffffffffffffffffffffffffffffffffffffffff16600073ffffffffffffffffffffffffffffffffffffffff167fddf252ad1be2c89b69c2b068fc378daa952ba7f163c4a11628f55a4df523b3ef60405160405180910390a45050565b6008805490506009600083815260200190815260200160002081905550600881908060018154018082558091505090600182039060005260206000200160009091929091909150555050565b60606000821415613404576040805190810160405280600181526020017f30000000000000000000000000000000000000000000000000000000000000008152509050613510565b600082905060005b600082141515613432578080600101915050600a8281151561342a57fe5b04915061340c565b6060816040519080825280601f01601f1916602001820160405280156134675781602001600182028038833980820191505090505b50905060006001830390505b60008614151561350857600a8681151561348957fe5b066030017f0100000000000000000000000000000000000000000000000000000000000000028282806001900393508151811015156134c457fe5b9060200101907effffffffffffffffffffffffffffffffffffffffffffffffffffffffffffff1916908160001a905350600a8681151561350057fe5b049550613473565b819450505050505b919050565b60606135548383602060405190810160405280600081525060206040519081016040528060008152506020604051908101604052806000815250613677565b905092915050565b600073ffffffffffffffffffffffffffffffffffffffff166003600083815260200190815260200160002060009054906101000a900473ffffffffffffffffffffffffffffffffffffffff1673ffffffffffffffffffffffffffffffffffffffff161415156136195760006003600083815260200190815260200160002060006101000a81548173ffffffffffffffffffffffffffffffffffffffff021916908373ffffffffffffffffffffffffffffffffffffffff1602179055505b50565b6136346001826000015461365590919063ffffffff16565b816000018190555050565b6001816000016000828254019250508190555050565b600082821115151561366657600080fd5b600082840390508091505092915050565b6060808690506060869050606086905060608690506060869050606081518351855187518951010101016040519080825280601f01601f1916602001820160405280156136d35781602001600182028038833980820191505090505b509050606081905060008090506000809050600090505b885181101561379d57888181518110151561370157fe5b9060200101517f010000000000000000000000000000000000000000000000000000000000000090047f010000000000000000000000000000000000000000000000000000000000000002838380600101945081518110151561376057fe5b9060200101907effffffffffffffffffffffffffffffffffffffffffffffffffffffffffffff1916908160001a90535080806001019150506136ea565b600090505b87518110156138555787818151811015156137b957fe5b9060200101517f010000000000000000000000000000000000000000000000000000000000000090047f010000000000000000000000000000000000000000000000000000000000000002838380600101945081518110151561381857fe5b9060200101907effffffffffffffffffffffffffffffffffffffffffffffffffffffffffffff1916908160001a90535080806001019150506137a2565b600090505b865181101561390d57868181518110151561387157fe5b9060200101517f010000000000000000000000000000000000000000000000000000000000000090047f01000000000000000000000000000000000000000000000000000000000000000283838060010194508151811015156138d057fe5b9060200101907effffffffffffffffffffffffffffffffffffffffffffffffffffffffffffff1916908160001a905350808060010191505061385a565b600090505b85518110156139c557858181518110151561392957fe5b9060200101517f010000000000000000000000000000000000000000000000000000000000000090047f010000000000000000000000000000000000000000000000000000000000000002838380600101945081518110151561398857fe5b9060200101907effffffffffffffffffffffffffffffffffffffffffffffffffffffffffffff1916908160001a9053508080600101915050613912565b600090505b8451811015613a7d5784818151811015156139e157fe5b9060200101517f010000000000000000000000000000000000000000000000000000000000000090047f0100000000000000000000000000000000000000000000000000000000000000028383806001019450815181101515613a4057fe5b9060200101907effffffffffffffffffffffffffffffffffffffffffffffffffffffffffffff1916908160001a90535080806001019150506139ca565b82995050505050505050505095945050505050565b828054600181600116156101000203166002900490600052602060002090601f016020900481019282601f10613ad357805160ff1916838001178555613b01565b82800160010185558215613b01579182015b82811115613b00578251825591602001919060010190613ae5565b5b509050613b0e9190613b3e565b5090565b815481835581811115613b3957818360005260206000209182019101613b389190613b3e565b5b505050565b613b6091905b80821115613b5c576000816000905550600101613b44565b5090565b9056fea165627a7a723058202e1e9f756dd6ccf2d2615faa4f3fef79ccfefef07900fa8b5d270703cd2e6bef0029",
  "source": "pragma solidity >= 0.4 .21 < 0.6 .0;\n\n// TODO define a contract call to the zokrates generated solidity contract <Verifier> or <renamedVerifier>\n\nimport \"../../../Blockchain-Capstone-master/zokrates/code/square/verifier.sol\";\n\n// TODO define another contract named SolnSquareVerifier that inherits from your ERC721Mintable class\nimport \"./ERC721Mintable.sol\";\n\ncontract SolnSquareVerifier is ISBERC721Token {\n    // TODO define a solutions struct that can hold an index & an address\n    struct solutions {\n        uint256 index;\n        address Address;\n    }\n    // TODO define an array of the above struct\n    //SolotionArray[] private solutions;\n    // TODO define a mapping to store unique solutions submitted\n    mapping(bytes32 => solutions) solutionArray;\n    // TODO Create an event to emit when a solution is added\n    event solotionAdded(uint256 index, address Address);\n    // TODO Create a function to add the solutions to the array and emit the event\n    function addSolution(address _Address, uint256 _index, bytes32 _key) internal {\n        solutionArray[_key] = solutions({\n            index: _index,\n            Address: _Address\n        });\n\n        emit solotionAdded(_index, _Address);\n\n    }\n\n    Verifier public VerifierContract;\n    constructor(address VerifierContractAddress) public {\n        VerifierContract = Verifier(VerifierContractAddress);\n    }\n    // TODO Create a function to mint new NFT only after the solution has been verified\n    //  - make sure the solution is unique (has not been used before)\n    //  - make sure you handle metadata as well as tokenSuplly\n\n    function getHash(\n        uint[2] memory a,\n        uint[2] memory a_p,\n        uint[2][2] memory b,\n        uint[2] memory b_p,\n        uint[2] memory c,\n        uint[2] memory c_p,\n        uint[2] memory h,\n        uint[2] memory k,\n        uint[2] memory input)\n    internal view returns(bytes32) {\n        return keccak256(abi.encodePacked(a, a_p, b, b_p, c, c_p, h, k, input));\n    }\n\n    function mintNFT(address to, uint256 tokenID,\n        uint[2] memory a,\n        uint[2] memory a_p,\n        uint[2][2] memory b,\n        uint[2] memory b_p,\n        uint[2] memory c,\n        uint[2] memory c_p,\n        uint[2] memory h,\n        uint[2] memory k,\n        uint[2] memory input)\n    public returns(uint256) {\n        bytes32 key = getHash(a, a_p, b, b_p, c, c_p, h, k, input);\n        require(solutionArray[key].Address == address(0), \"require unique solution\");\n        require(VerifierContract.verifyTx(a, a_p, b, b_p, c, c_p, h, k, input), \"not verified\");\n        addSolution(to, tokenID, key);        \n        return super.mint(to, tokenID, \"TokenURI\");\n\n    }\n\n}",
  "sourcePath": "/home/isb/Desktop/UdacityBlockchain/Blockchain-Capstone-master/eth-contracts/contracts/SolnSquareVerifier.sol",
  "compiler": {
    "name": "solc",
    "version": "0.5.0+commit.1d4f565a.Emscripten.clang"
  },
  "schemaVersion": "3.0.6",
  "updatedAt": "2019-04-23T16:48:04.226Z",
  "devdoc": {
    "methods": {
      "isApprovedForAll(address,address)": {
        "details": "Tells whether an operator is approved by a given owner",
        "params": {
          "operator": "operator address which you want to query the approval of",
          "owner": "owner address which you want to query the approval of"
        },
        "return": "bool whether the given operator is approved by the given owner"
      },
      "setApprovalForAll(address,bool)": {
        "details": "Sets or unsets the approval of a given operator An operator is allowed to transfer all tokens of the sender on their behalf",
        "params": {
          "approved": "representing the status of the approval to be set",
          "to": "operator address to set the approval"
        }
      },
      "supportsInterface(bytes4)": {
        "details": "implement supportsInterface(bytes4) using a lookup table"
      },
      "tokenByIndex(uint256)": {
        "details": "Gets the token ID at a given index of all the tokens in this contract Reverts if the index is greater or equal to the total number of tokens",
        "params": {
          "index": "uint256 representing the index to be accessed of the tokens list"
        },
        "return": "uint256 token ID at the given index of the tokens list"
      },
      "tokenOfOwnerByIndex(address,uint256)": {
        "details": "Gets the token ID at a given index of the tokens list of the requested owner",
        "params": {
          "index": "uint256 representing the index to be accessed of the requested tokens list",
          "owner": "address owning the tokens list to be accessed"
        },
        "return": "uint256 token ID at the given index of the tokens list owned by the requested address"
      },
      "totalSupply()": {
        "details": "Gets the total amount of tokens stored by the contract",
        "return": "uint256 representing the total amount of tokens"
      }
    }
  },
  "userdoc": {
    "methods": {}
  }
}